{
  "_format": "hh-sol-artifact-1",
  "contractName": "Vault",
  "sourceName": "contracts/Vault.sol",
  "abi": [
    {
      "inputs": [
        {
          "internalType": "address",
          "name": "_owner",
          "type": "address"
        },
        {
          "internalType": "uint256",
          "name": "_frec",
          "type": "uint256"
        },
        {
          "internalType": "uint256",
          "name": "_distributionFrec",
          "type": "uint256"
        },
        {
          "internalType": "address payable[]",
          "name": "_distributeAddresses",
          "type": "address[]"
        },
        {
          "internalType": "string",
          "name": "_name",
          "type": "string"
        },
        {
          "internalType": "uint256",
          "name": "_distibutionType",
          "type": "uint256"
        },
        {
          "internalType": "uint256",
          "name": "_distributionValue",
          "type": "uint256"
        }
      ],
      "stateMutability": "nonpayable",
      "type": "constructor"
    },
    {
      "anonymous": false,
      "inputs": [
        {
          "indexed": false,
          "internalType": "uint256",
          "name": "newdistributionTimeStamp",
          "type": "uint256"
        },
        {
          "indexed": false,
          "internalType": "address",
          "name": "executedBy",
          "type": "address"
        },
        {
          "indexed": false,
          "internalType": "uint256",
          "name": "currentBalance",
          "type": "uint256"
        }
      ],
      "name": "DistributionExecuted",
      "type": "event"
    },
    {
      "anonymous": false,
      "inputs": [
        {
          "indexed": true,
          "internalType": "address",
          "name": "previousOwner",
          "type": "address"
        },
        {
          "indexed": true,
          "internalType": "address",
          "name": "newOwner",
          "type": "address"
        }
      ],
      "name": "OwnershipTransferred",
      "type": "event"
    },
    {
      "anonymous": false,
      "inputs": [
        {
          "indexed": false,
          "internalType": "uint256",
          "name": "newdistributionTimeStamp",
          "type": "uint256"
        }
      ],
      "name": "distributionTimeStampChange",
      "type": "event"
    },
    {
      "inputs": [],
      "name": "allIsFine",
      "outputs": [],
      "stateMutability": "nonpayable",
      "type": "function"
    },
    {
      "inputs": [],
      "name": "distibutionType",
      "outputs": [
        {
          "internalType": "uint256",
          "name": "",
          "type": "uint256"
        }
      ],
      "stateMutability": "view",
      "type": "function"
    },
    {
      "inputs": [],
      "name": "distribute",
      "outputs": [],
      "stateMutability": "nonpayable",
      "type": "function"
    },
    {
      "inputs": [
        {
          "internalType": "uint256",
          "name": "",
          "type": "uint256"
        }
      ],
      "name": "distributeAddresses",
      "outputs": [
        {
          "internalType": "address payable",
          "name": "",
          "type": "address"
        }
      ],
      "stateMutability": "view",
      "type": "function"
    },
    {
      "inputs": [],
      "name": "distributionFrec",
      "outputs": [
        {
          "internalType": "uint256",
          "name": "",
          "type": "uint256"
        }
      ],
      "stateMutability": "view",
      "type": "function"
    },
    {
      "inputs": [],
      "name": "distributionTimeStamp",
      "outputs": [
        {
          "internalType": "uint256",
          "name": "",
          "type": "uint256"
        }
      ],
      "stateMutability": "view",
      "type": "function"
    },
    {
      "inputs": [],
      "name": "distributionValue",
      "outputs": [
        {
          "internalType": "uint256",
          "name": "",
          "type": "uint256"
        }
      ],
      "stateMutability": "view",
      "type": "function"
    },
    {
      "inputs": [],
      "name": "frec",
      "outputs": [
        {
          "internalType": "uint256",
          "name": "",
          "type": "uint256"
        }
      ],
      "stateMutability": "view",
      "type": "function"
    },
    {
      "inputs": [],
      "name": "name",
      "outputs": [
        {
          "internalType": "string",
          "name": "",
          "type": "string"
        }
      ],
      "stateMutability": "view",
      "type": "function"
    },
    {
      "inputs": [],
      "name": "owner",
      "outputs": [
        {
          "internalType": "address",
          "name": "",
          "type": "address"
        }
      ],
      "stateMutability": "view",
      "type": "function"
    },
    {
      "inputs": [],
      "name": "readDistributeAddresses",
      "outputs": [
        {
          "internalType": "address payable[]",
          "name": "",
          "type": "address[]"
        }
      ],
      "stateMutability": "view",
      "type": "function"
    },
    {
      "inputs": [],
      "name": "renounceOwnership",
      "outputs": [],
      "stateMutability": "nonpayable",
      "type": "function"
    },
    {
      "inputs": [
        {
          "internalType": "address",
          "name": "newOwner",
          "type": "address"
        }
      ],
      "name": "transferOwnership",
      "outputs": [],
      "stateMutability": "nonpayable",
      "type": "function"
    },
    {
      "inputs": [],
      "name": "withdraw",
      "outputs": [],
      "stateMutability": "nonpayable",
      "type": "function"
    },
    {
      "stateMutability": "payable",
      "type": "receive"
    }
  ],
  "bytecode": "0x60806040523480156200001157600080fd5b5060405162000f2938038062000f29833981016040819052620000349162000272565b6200003f336200009e565b6200004a876200009e565b600386905560048590556200005f86620000ee565b60025583516200007790600190602087019062000102565b5060058290556006819055600762000090848262000425565b505050505050505062000513565b600080546001600160a01b038381166001600160a01b0319831681178455604051919092169283917f8be0079c531659141344cd1fd0a4f28419497f9722a3daafe3b4186f6b6457e09190a35050565b6000620000fc8242620004f1565b92915050565b8280548282559060005260206000209081019282156200015a579160200282015b828111156200015a57825182546001600160a01b0319166001600160a01b0390911617825560209092019160019091019062000123565b50620001689291506200016c565b5090565b5b808211156200016857600081556001016200016d565b6001600160a01b03811681146200019957600080fd5b50565b634e487b7160e01b600052604160045260246000fd5b604051601f8201601f191681016001600160401b0381118282101715620001dd57620001dd6200019c565b604052919050565b600082601f830112620001f757600080fd5b81516001600160401b038111156200021357620002136200019c565b602062000229601f8301601f19168201620001b2565b82815285828487010111156200023e57600080fd5b60005b838110156200025e57858101830151828201840152820162000241565b506000928101909101919091529392505050565b600080600080600080600060e0888a0312156200028e57600080fd5b87516200029b8162000183565b60208981015160408b015160608c0151939a509098509650906001600160401b0380821115620002ca57600080fd5b818b0191508b601f830112620002df57600080fd5b815181811115620002f457620002f46200019c565b8060051b62000305858201620001b2565b918252838101850191858101908f8411156200032057600080fd5b948601945b838610156200034e57855192506200033d8362000183565b828252948601949086019062000325565b60808f0151909a509550505050808311156200036957600080fd5b5050620003798a828b01620001e5565b93505060a0880151915060c0880151905092959891949750929550565b600181811c90821680620003ab57607f821691505b602082108103620003cc57634e487b7160e01b600052602260045260246000fd5b50919050565b601f8211156200042057600081815260208120601f850160051c81016020861015620003fb5750805b601f850160051c820191505b818110156200041c5782815560010162000407565b5050505b505050565b81516001600160401b038111156200044157620004416200019c565b620004598162000452845462000396565b84620003d2565b602080601f831160018114620004915760008415620004785750858301515b600019600386901b1c1916600185901b1785556200041c565b600085815260208120601f198616915b82811015620004c257888601518255948401946001909101908401620004a1565b5085821015620004e15787850151600019600388901b60f8161c191681555b5050505050600190811b01905550565b80820180821115620000fc57634e487b7160e01b600052601160045260246000fd5b610a0680620005236000396000f3fe6080604052600436106100e15760003560e01c806385b56da71161007f5780639f601530116100595780639f60153014610215578063d9b634551461022b578063e4fc6b6d1461024d578063f2fde38b1461026257600080fd5b806385b56da7146101cb5780638da5cb5b146101e157806399645522146101ff57600080fd5b80633babdebd116100bb5780633babdebd146101745780633ccfd60b1461018b578063715018a6146101a057806371f2d315146101b557600080fd5b806306fdde03146100ed57806330cda88b14610118578063384d46cb1461015057600080fd5b366100e857005b600080fd5b3480156100f957600080fd5b50610102610282565b60405161010f9190610821565b60405180910390f35b34801561012457600080fd5b5061013861013336600461086f565b610310565b6040516001600160a01b03909116815260200161010f565b34801561015c57600080fd5b5061016660065481565b60405190815260200161010f565b34801561018057600080fd5b5061018961033a565b005b34801561019757600080fd5b50610189610387565b3480156101ac57600080fd5b50610189610431565b3480156101c157600080fd5b5061016660045481565b3480156101d757600080fd5b5061016660055481565b3480156101ed57600080fd5b506000546001600160a01b0316610138565b34801561020b57600080fd5b5061016660025481565b34801561022157600080fd5b5061016660035481565b34801561023757600080fd5b50610240610445565b60405161010f9190610888565b34801561025957600080fd5b506101896104a7565b34801561026e57600080fd5b5061018961027d3660046108d5565b610650565b6007805461028f90610905565b80601f01602080910402602001604051908101604052809291908181526020018280546102bb90610905565b80156103085780601f106102dd57610100808354040283529160200191610308565b820191906000526020600020905b8154815290600101906020018083116102eb57829003601f168201915b505050505081565b6001818154811061032057600080fd5b6000918252602090912001546001600160a01b0316905081565b6103426106c6565b61034d600354610720565b60028190556040519081527ff1822d7f72c147833c815e0ed8591a7cef8ca6a386d1d594a6e8ca7d33a227509060200160405180910390a1565b61038f6106c6565b600080546040516001600160a01b039091169047908381818185875af1925050503d80600081146103dc576040519150601f19603f3d011682016040523d82523d6000602084013e6103e1565b606091505b505090508061042e5760405162461bcd60e51b81526020600482015260146024820152732330b4b632b2103a379039b2b7321022ba3432b960611b60448201526064015b60405180910390fd5b50565b6104396106c6565b6104436000610732565b565b6060600180548060200260200160405190810160405280929190818152602001828054801561049d57602002820191906000526020600020905b81546001600160a01b0316815260019091019060200180831161047f575b5050505050905090565b6002544210156104ee5760405162461bcd60e51b815260206004820152601260248201527110dbdb9d1c9858dd081a5cc81b1bd8dad95960721b6044820152606401610425565b6000471161053e5760405162461bcd60e51b815260206004820152601760248201527f5468657265206973206e6f20656e6f75677468206574680000000000000000006044820152606401610425565b60015447906000906105509083610955565b9050600554600114801561056b5750670de0b6b3a764000047115b1561059f576064670de0b6b3a76400006006546105889190610955565b6105929047610977565b61059c9190610955565b90505b6005546002036105ae57506006545b60005b6001548110156105fe576105ec600182815481106105d1576105d161098e565b6000918252602090912001546001600160a01b031683610782565b806105f6816109a4565b9150506105b1565b5061060a600454610720565b6002819055604080519182523060208301524782820152517f01730aae25f2e62daa6a0c8378842091f7502a5cd50034123249ef04034c4e1a9181900360600190a15050565b6106586106c6565b6001600160a01b0381166106bd5760405162461bcd60e51b815260206004820152602660248201527f4f776e61626c653a206e6577206f776e657220697320746865207a65726f206160448201526564647265737360d01b6064820152608401610425565b61042e81610732565b6000546001600160a01b031633146104435760405162461bcd60e51b815260206004820181905260248201527f4f776e61626c653a2063616c6c6572206973206e6f7420746865206f776e65726044820152606401610425565b600061072c82426109bd565b92915050565b600080546001600160a01b038381166001600160a01b0319831681178455604051919092169283917f8be0079c531659141344cd1fd0a4f28419497f9722a3daafe3b4186f6b6457e09190a35050565b6000826001600160a01b03168260405160006040518083038185875af1925050503d80600081146107cf576040519150601f19603f3d011682016040523d82523d6000602084013e6107d4565b606091505b505090508061081c5760405162461bcd60e51b81526020600482015260146024820152732330b4b632b2103a379039b2b7321022ba3432b960611b6044820152606401610425565b505050565b600060208083528351808285015260005b8181101561084e57858101830151858201604001528201610832565b506000604082860101526040601f19601f8301168501019250505092915050565b60006020828403121561088157600080fd5b5035919050565b6020808252825182820181905260009190848201906040850190845b818110156108c95783516001600160a01b0316835292840192918401916001016108a4565b50909695505050505050565b6000602082840312156108e757600080fd5b81356001600160a01b03811681146108fe57600080fd5b9392505050565b600181811c9082168061091957607f821691505b60208210810361093957634e487b7160e01b600052602260045260246000fd5b50919050565b634e487b7160e01b600052601160045260246000fd5b60008261097257634e487b7160e01b600052601260045260246000fd5b500490565b808202811582820484141761072c5761072c61093f565b634e487b7160e01b600052603260045260246000fd5b6000600182016109b6576109b661093f565b5060010190565b8082018082111561072c5761072c61093f56fea26469706673582212202805dfd83c3f7a3d70deee8c1790f46bf3771c3ffd49cf95978655bce6b21fee64736f6c63430008110033",
  "linkReferences": {},
  "deployedLinkReferences": {}
}