{
  "_format": "hh-sol-artifact-1",
  "contractName": "Vault",
  "sourceName": "contracts/Vault.sol",
  "abi": [
    {
      "inputs": [
        {
          "internalType": "address",
          "name": "_owner",
          "type": "address"
        },
        {
          "internalType": "uint256",
          "name": "_frec",
          "type": "uint256"
        },
        {
          "internalType": "uint256",
          "name": "_distributionFrec",
          "type": "uint256"
        },
        {
          "internalType": "address payable[]",
          "name": "_distributeAddresses",
          "type": "address[]"
        },
        {
          "internalType": "string",
          "name": "_name",
          "type": "string"
        },
        {
          "internalType": "uint256",
          "name": "_distibutionType",
          "type": "uint256"
        },
        {
          "internalType": "uint256",
          "name": "_distributionValue",
          "type": "uint256"
        }
      ],
      "stateMutability": "nonpayable",
      "type": "constructor"
    },
    {
      "anonymous": false,
      "inputs": [
        {
          "indexed": false,
          "internalType": "uint256",
          "name": "newdistributionTimeStamp",
          "type": "uint256"
        },
        {
          "indexed": false,
          "internalType": "address",
          "name": "executedBy",
          "type": "address"
        },
        {
          "indexed": false,
          "internalType": "uint256",
          "name": "currentBalance",
          "type": "uint256"
        }
      ],
      "name": "DistributionExecuted",
      "type": "event"
    },
    {
      "anonymous": false,
      "inputs": [
        {
          "indexed": true,
          "internalType": "address",
          "name": "previousOwner",
          "type": "address"
        },
        {
          "indexed": true,
          "internalType": "address",
          "name": "newOwner",
          "type": "address"
        }
      ],
      "name": "OwnershipTransferred",
      "type": "event"
    },
    {
      "anonymous": false,
      "inputs": [
        {
          "indexed": false,
          "internalType": "uint256",
          "name": "newdistributionTimeStamp",
          "type": "uint256"
        }
      ],
      "name": "distributionTimeStampChange",
      "type": "event"
    },
    {
      "inputs": [],
      "name": "allIsFine",
      "outputs": [],
      "stateMutability": "nonpayable",
      "type": "function"
    },
    {
      "inputs": [],
      "name": "distibutionType",
      "outputs": [
        {
          "internalType": "uint256",
          "name": "",
          "type": "uint256"
        }
      ],
      "stateMutability": "view",
      "type": "function"
    },
    {
      "inputs": [],
      "name": "distribute",
      "outputs": [],
      "stateMutability": "nonpayable",
      "type": "function"
    },
    {
      "inputs": [
        {
          "internalType": "uint256",
          "name": "",
          "type": "uint256"
        }
      ],
      "name": "distributeAddresses",
      "outputs": [
        {
          "internalType": "address payable",
          "name": "",
          "type": "address"
        }
      ],
      "stateMutability": "view",
      "type": "function"
    },
    {
      "inputs": [],
      "name": "distributionFrec",
      "outputs": [
        {
          "internalType": "uint256",
          "name": "",
          "type": "uint256"
        }
      ],
      "stateMutability": "view",
      "type": "function"
    },
    {
      "inputs": [],
      "name": "distributionTimeStamp",
      "outputs": [
        {
          "internalType": "uint256",
          "name": "",
          "type": "uint256"
        }
      ],
      "stateMutability": "view",
      "type": "function"
    },
    {
      "inputs": [],
      "name": "distributionValue",
      "outputs": [
        {
          "internalType": "uint256",
          "name": "",
          "type": "uint256"
        }
      ],
      "stateMutability": "view",
      "type": "function"
    },
    {
      "inputs": [],
      "name": "frec",
      "outputs": [
        {
          "internalType": "uint256",
          "name": "",
          "type": "uint256"
        }
      ],
      "stateMutability": "view",
      "type": "function"
    },
    {
      "inputs": [],
      "name": "name",
      "outputs": [
        {
          "internalType": "string",
          "name": "",
          "type": "string"
        }
      ],
      "stateMutability": "view",
      "type": "function"
    },
    {
      "inputs": [],
      "name": "owner",
      "outputs": [
        {
          "internalType": "address",
          "name": "",
          "type": "address"
        }
      ],
      "stateMutability": "view",
      "type": "function"
    },
    {
      "inputs": [],
      "name": "readDistributeAddresses",
      "outputs": [
        {
          "internalType": "address payable[]",
          "name": "",
          "type": "address[]"
        }
      ],
      "stateMutability": "view",
      "type": "function"
    },
    {
      "inputs": [],
      "name": "renounceOwnership",
      "outputs": [],
      "stateMutability": "nonpayable",
      "type": "function"
    },
    {
      "inputs": [
        {
          "internalType": "address",
          "name": "newOwner",
          "type": "address"
        }
      ],
      "name": "transferOwnership",
      "outputs": [],
      "stateMutability": "nonpayable",
      "type": "function"
    },
    {
      "inputs": [],
      "name": "withdraw",
      "outputs": [],
      "stateMutability": "nonpayable",
      "type": "function"
    },
    {
      "stateMutability": "payable",
      "type": "receive"
    }
  ],
  "bytecode": "0x60806040523480156200001157600080fd5b50604051620011f2380380620011f28339810160408190526200003491620003db565b6200003f3362000185565b6200004a8762000185565b600386905560048590556200005f86620001d5565b6002558351620000779060019060208701906200025e565b50600582905560018290036200016457620000ec6040518060600160405280602a8152602001620011c8602a9139620000b9670de0b6b3a76400008462000515565b8651620000cf670de0b6b3a76400008662000515565b620000db919062000538565b620001e960201b620006da1760201c565b835160649062000105670de0b6b3a76400008462000515565b62000111919062000538565b1115620001645760405162461bcd60e51b815260206004820152601f60248201527f546f74616c20646973747269627574696f6e2065786365656473203130302500604482015260640160405180910390fd5b60068190556007620001778482620005e0565b505050505050505062000706565b600080546001600160a01b038381166001600160a01b0319831681178455604051919092169283917f8be0079c531659141344cd1fd0a4f28419497f9722a3daafe3b4186f6b6457e09190a35050565b6000620001e38242620006ac565b92915050565b620002388383836040516024016200020493929190620006c2565b60408051601f198184030181529190526020810180516001600160e01b0390811663ca47c4eb60e01b179091526200023d16565b505050565b80516a636f6e736f6c652e6c6f67602083016000808483855afa5050505050565b828054828255906000526020600020908101928215620002b6579160200282015b82811115620002b657825182546001600160a01b0319166001600160a01b039091161782556020909201916001909101906200027f565b50620002c4929150620002c8565b5090565b5b80821115620002c45760008155600101620002c9565b6001600160a01b0381168114620002f557600080fd5b50565b634e487b7160e01b600052604160045260246000fd5b604051601f8201601f191681016001600160401b0381118282101715620003395762000339620002f8565b604052919050565b60005b838110156200035e57818101518382015260200162000344565b50506000910152565b600082601f8301126200037957600080fd5b81516001600160401b03811115620003955762000395620002f8565b620003aa601f8201601f19166020016200030e565b818152846020838601011115620003c057600080fd5b620003d382602083016020870162000341565b949350505050565b600080600080600080600060e0888a031215620003f757600080fd5b87516200040481620002df565b60208981015160408b015160608c0151939a509098509650906001600160401b03808211156200043357600080fd5b818b0191508b601f8301126200044857600080fd5b8151818111156200045d576200045d620002f8565b8060051b6200046e8582016200030e565b918252838101850191858101908f8411156200048957600080fd5b948601945b83861015620004b75785519250620004a683620002df565b82825294860194908601906200048e565b60808f0151909a50955050505080831115620004d257600080fd5b5050620004e28a828b0162000367565b93505060a0880151915060c0880151905092959891949750929550565b634e487b7160e01b600052601160045260246000fd5b6000826200053357634e487b7160e01b600052601260045260246000fd5b500490565b8082028115828204841417620001e357620001e3620004ff565b600181811c908216806200056757607f821691505b6020821081036200058857634e487b7160e01b600052602260045260246000fd5b50919050565b601f8211156200023857600081815260208120601f850160051c81016020861015620005b75750805b601f850160051c820191505b81811015620005d857828155600101620005c3565b505050505050565b81516001600160401b03811115620005fc57620005fc620002f8565b62000614816200060d845462000552565b846200058e565b602080601f8311600181146200064c5760008415620006335750858301515b600019600386901b1c1916600185901b178555620005d8565b600085815260208120601f198616915b828110156200067d578886015182559484019460019091019084016200065c565b50858210156200069c5787850151600019600388901b60f8161c191681555b5050505050600190811b01905550565b80820180821115620001e357620001e3620004ff565b6060815260008451806060840152620006e381608085016020890162000341565b60208301949094525060408101919091526080601f909201601f19160101919050565b610ab280620007166000396000f3fe6080604052600436106100e15760003560e01c806385b56da71161007f5780639f601530116100595780639f60153014610215578063d9b634551461022b578063e4fc6b6d1461024d578063f2fde38b1461026257600080fd5b806385b56da7146101cb5780638da5cb5b146101e157806399645522146101ff57600080fd5b80633babdebd116100bb5780633babdebd146101745780633ccfd60b1461018b578063715018a6146101a057806371f2d315146101b557600080fd5b806306fdde03146100ed57806330cda88b14610118578063384d46cb1461015057600080fd5b366100e857005b600080fd5b3480156100f957600080fd5b50610102610282565b60405161010f91906108e3565b60405180910390f35b34801561012457600080fd5b506101386101333660046108fd565b610310565b6040516001600160a01b03909116815260200161010f565b34801561015c57600080fd5b5061016660065481565b60405190815260200161010f565b34801561018057600080fd5b5061018961033a565b005b34801561019757600080fd5b50610189610387565b3480156101ac57600080fd5b50610189610431565b3480156101c157600080fd5b5061016660045481565b3480156101d757600080fd5b5061016660055481565b3480156101ed57600080fd5b506000546001600160a01b0316610138565b34801561020b57600080fd5b5061016660025481565b34801561022157600080fd5b5061016660035481565b34801561023757600080fd5b50610240610445565b60405161010f9190610916565b34801561025957600080fd5b506101896104a7565b34801561026e57600080fd5b5061018961027d366004610963565b610664565b6007805461028f9061098c565b80601f01602080910402602001604051908101604052809291908181526020018280546102bb9061098c565b80156103085780601f106102dd57610100808354040283529160200191610308565b820191906000526020600020905b8154815290600101906020018083116102eb57829003601f168201915b505050505081565b6001818154811061032057600080fd5b6000918252602090912001546001600160a01b0316905081565b610342610726565b61034d600354610780565b60028190556040519081527ff1822d7f72c147833c815e0ed8591a7cef8ca6a386d1d594a6e8ca7d33a227509060200160405180910390a1565b61038f610726565b600080546040516001600160a01b039091169047908381818185875af1925050503d80600081146103dc576040519150601f19603f3d011682016040523d82523d6000602084013e6103e1565b606091505b505090508061042e5760405162461bcd60e51b81526020600482015260146024820152732330b4b632b2103a379039b2b7321022ba3432b960611b60448201526064015b60405180910390fd5b50565b610439610726565b6104436000610792565b565b6060600180548060200260200160405190810160405280929190818152602001828054801561049d57602002820191906000526020600020905b81546001600160a01b0316815260019091019060200180831161047f575b5050505050905090565b6002544210156104ee5760405162461bcd60e51b815260206004820152601260248201527110dbdb9d1c9858dd081a5cc81b1bd8dad95960721b6044820152606401610425565b6000471161053e5760405162461bcd60e51b815260206004820152601760248201527f5468657265206973206e6f20656e6f75677468206574680000000000000000006044820152606401610425565b600154479060009061055090836109dc565b9050600554600114801561056b5750670de0b6b3a764000047115b1561059f576064670de0b6b3a764000060065461058891906109dc565b61059290476109fe565b61059c91906109dc565b90505b60055460021480156105b85750670de0b6b3a764000047115b156105c257506006545b60005b60015481101561061257610600600182815481106105e5576105e5610a15565b6000918252602090912001546001600160a01b0316836107e2565b8061060a81610a2b565b9150506105c5565b5061061e600454610780565b6002819055604080519182523060208301524782820152517f01730aae25f2e62daa6a0c8378842091f7502a5cd50034123249ef04034c4e1a9181900360600190a15050565b61066c610726565b6001600160a01b0381166106d15760405162461bcd60e51b815260206004820152602660248201527f4f776e61626c653a206e6577206f776e657220697320746865207a65726f206160448201526564647265737360d01b6064820152608401610425565b61042e81610792565b6107218383836040516024016106f293929190610a44565b60408051601f198184030181529190526020810180516001600160e01b031663ca47c4eb60e01b17905261087c565b505050565b6000546001600160a01b031633146104435760405162461bcd60e51b815260206004820181905260248201527f4f776e61626c653a2063616c6c6572206973206e6f7420746865206f776e65726044820152606401610425565b600061078c8242610a69565b92915050565b600080546001600160a01b038381166001600160a01b0319831681178455604051919092169283917f8be0079c531659141344cd1fd0a4f28419497f9722a3daafe3b4186f6b6457e09190a35050565b6000826001600160a01b03168260405160006040518083038185875af1925050503d806000811461082f576040519150601f19603f3d011682016040523d82523d6000602084013e610834565b606091505b50509050806107215760405162461bcd60e51b81526020600482015260146024820152732330b4b632b2103a379039b2b7321022ba3432b960611b6044820152606401610425565b80516a636f6e736f6c652e6c6f67602083016000808483855afa5050505050565b6000815180845260005b818110156108c3576020818501810151868301820152016108a7565b506000602082860101526020601f19601f83011685010191505092915050565b6020815260006108f6602083018461089d565b9392505050565b60006020828403121561090f57600080fd5b5035919050565b6020808252825182820181905260009190848201906040850190845b818110156109575783516001600160a01b031683529284019291840191600101610932565b50909695505050505050565b60006020828403121561097557600080fd5b81356001600160a01b03811681146108f657600080fd5b600181811c908216806109a057607f821691505b6020821081036109c057634e487b7160e01b600052602260045260246000fd5b50919050565b634e487b7160e01b600052601160045260246000fd5b6000826109f957634e487b7160e01b600052601260045260246000fd5b500490565b808202811582820484141761078c5761078c6109c6565b634e487b7160e01b600052603260045260246000fd5b600060018201610a3d57610a3d6109c6565b5060010190565b606081526000610a57606083018661089d565b60208301949094525060400152919050565b8082018082111561078c5761078c6109c656fea2646970667358221220ab9715fe8bbc07abd5a3936a23441b4fdd313966f9eb993924854cfd2ceb107664736f6c6343000811003353657474696e67206e657720646973747269627574696f6e426c6f636b20272573272066726f6d202573",
  "linkReferences": {},
  "deployedLinkReferences": {}
}